{
  "_format": "hh-sol-artifact-1",
  "contractName": "Animal",
  "sourceName": "contracts/Animal.sol",
  "abi": [
    {
      "inputs": [],
      "stateMutability": "nonpayable",
      "type": "constructor"
    },
    {
      "anonymous": false,
      "inputs": [
        {
          "indexed": true,
          "internalType": "address",
          "name": "owner",
          "type": "address"
        },
        {
          "indexed": true,
          "internalType": "address",
          "name": "approved",
          "type": "address"
        },
        {
          "indexed": true,
          "internalType": "uint256",
          "name": "tokenId",
          "type": "uint256"
        }
      ],
      "name": "Approval",
      "type": "event"
    },
    {
      "anonymous": false,
      "inputs": [
        {
          "indexed": true,
          "internalType": "address",
          "name": "owner",
          "type": "address"
        },
        {
          "indexed": true,
          "internalType": "address",
          "name": "operator",
          "type": "address"
        },
        {
          "indexed": false,
          "internalType": "bool",
          "name": "approved",
          "type": "bool"
        }
      ],
      "name": "ApprovalForAll",
      "type": "event"
    },
    {
      "anonymous": false,
      "inputs": [
        {
          "indexed": true,
          "internalType": "address",
          "name": "from",
          "type": "address"
        },
        {
          "indexed": true,
          "internalType": "address",
          "name": "to",
          "type": "address"
        },
        {
          "indexed": true,
          "internalType": "uint256",
          "name": "tokenId",
          "type": "uint256"
        }
      ],
      "name": "Transfer",
      "type": "event"
    },
    {
      "inputs": [
        {
          "internalType": "address",
          "name": "to",
          "type": "address"
        },
        {
          "internalType": "uint256",
          "name": "tokenId",
          "type": "uint256"
        }
      ],
      "name": "approve",
      "outputs": [],
      "stateMutability": "nonpayable",
      "type": "function"
    },
    {
      "inputs": [
        {
          "internalType": "address",
          "name": "owner",
          "type": "address"
        }
      ],
      "name": "balanceOf",
      "outputs": [
        {
          "internalType": "uint256",
          "name": "",
          "type": "uint256"
        }
      ],
      "stateMutability": "view",
      "type": "function"
    },
    {
      "inputs": [
        {
          "internalType": "uint256",
          "name": "tokenId",
          "type": "uint256"
        }
      ],
      "name": "getApproved",
      "outputs": [
        {
          "internalType": "address",
          "name": "",
          "type": "address"
        }
      ],
      "stateMutability": "view",
      "type": "function"
    },
    {
      "inputs": [
        {
          "internalType": "address",
          "name": "owner",
          "type": "address"
        },
        {
          "internalType": "address",
          "name": "operator",
          "type": "address"
        }
      ],
      "name": "isApprovedForAll",
      "outputs": [
        {
          "internalType": "bool",
          "name": "",
          "type": "bool"
        }
      ],
      "stateMutability": "view",
      "type": "function"
    },
    {
      "inputs": [
        {
          "internalType": "address",
          "name": "to",
          "type": "address"
        }
      ],
      "name": "mint",
      "outputs": [],
      "stateMutability": "nonpayable",
      "type": "function"
    },
    {
      "inputs": [],
      "name": "name",
      "outputs": [
        {
          "internalType": "string",
          "name": "",
          "type": "string"
        }
      ],
      "stateMutability": "view",
      "type": "function"
    },
    {
      "inputs": [
        {
          "internalType": "uint256",
          "name": "tokenId",
          "type": "uint256"
        }
      ],
      "name": "ownerOf",
      "outputs": [
        {
          "internalType": "address",
          "name": "",
          "type": "address"
        }
      ],
      "stateMutability": "view",
      "type": "function"
    },
    {
      "inputs": [
        {
          "internalType": "address",
          "name": "from",
          "type": "address"
        },
        {
          "internalType": "address",
          "name": "to",
          "type": "address"
        },
        {
          "internalType": "uint256",
          "name": "tokenId",
          "type": "uint256"
        }
      ],
      "name": "safeTransferFrom",
      "outputs": [],
      "stateMutability": "nonpayable",
      "type": "function"
    },
    {
      "inputs": [
        {
          "internalType": "address",
          "name": "from",
          "type": "address"
        },
        {
          "internalType": "address",
          "name": "to",
          "type": "address"
        },
        {
          "internalType": "uint256",
          "name": "tokenId",
          "type": "uint256"
        },
        {
          "internalType": "bytes",
          "name": "_data",
          "type": "bytes"
        }
      ],
      "name": "safeTransferFrom",
      "outputs": [],
      "stateMutability": "nonpayable",
      "type": "function"
    },
    {
      "inputs": [
        {
          "internalType": "address",
          "name": "operator",
          "type": "address"
        },
        {
          "internalType": "bool",
          "name": "approved",
          "type": "bool"
        }
      ],
      "name": "setApprovalForAll",
      "outputs": [],
      "stateMutability": "nonpayable",
      "type": "function"
    },
    {
      "inputs": [
        {
          "internalType": "address",
          "name": "merkleTreeAddress",
          "type": "address"
        }
      ],
      "name": "setMerkleTree",
      "outputs": [],
      "stateMutability": "nonpayable",
      "type": "function"
    },
    {
      "inputs": [
        {
          "internalType": "bytes4",
          "name": "interfaceId",
          "type": "bytes4"
        }
      ],
      "name": "supportsInterface",
      "outputs": [
        {
          "internalType": "bool",
          "name": "",
          "type": "bool"
        }
      ],
      "stateMutability": "view",
      "type": "function"
    },
    {
      "inputs": [],
      "name": "symbol",
      "outputs": [
        {
          "internalType": "string",
          "name": "",
          "type": "string"
        }
      ],
      "stateMutability": "view",
      "type": "function"
    },
    {
      "inputs": [
        {
          "internalType": "uint256",
          "name": "tokenId",
          "type": "uint256"
        }
      ],
      "name": "tokenURI",
      "outputs": [
        {
          "internalType": "string",
          "name": "",
          "type": "string"
        }
      ],
      "stateMutability": "pure",
      "type": "function"
    },
    {
      "inputs": [],
      "name": "totalSupply",
      "outputs": [
        {
          "internalType": "uint256",
          "name": "",
          "type": "uint256"
        }
      ],
      "stateMutability": "view",
      "type": "function"
    },
    {
      "inputs": [
        {
          "internalType": "address",
          "name": "from",
          "type": "address"
        },
        {
          "internalType": "address",
          "name": "to",
          "type": "address"
        },
        {
          "internalType": "uint256",
          "name": "tokenId",
          "type": "uint256"
        }
      ],
      "name": "transferFrom",
      "outputs": [],
      "stateMutability": "nonpayable",
      "type": "function"
    }
  ],
  "bytecode": "0x60806040523480156200001157600080fd5b506040518060400160405280600781526020017f416e696d616c73000000000000000000000000000000000000000000000000008152506040518060400160405280600381526020017f414e490000000000000000000000000000000000000000000000000000000000815250816000908051906020019062000096929190620000c0565b508060019080519060200190620000af929190620000c0565b5050506001600681905550620001d5565b828054620000ce9062000170565b90600052602060002090601f016020900481019282620000f257600085556200013e565b82601f106200010d57805160ff19168380011785556200013e565b828001600101855582156200013e579182015b828111156200013d57825182559160200191906001019062000120565b5b5090506200014d919062000151565b5090565b5b808211156200016c57600081600090555060010162000152565b5090565b600060028204905060018216806200018957607f821691505b60208210811415620001a0576200019f620001a6565b5b50919050565b7f4e487b7100000000000000000000000000000000000000000000000000000000600052602260045260246000fd5b612cdc80620001e56000396000f3fe608060405234801561001057600080fd5b50600436106101005760003560e01c80636352211e11610097578063a22cb46511610066578063a22cb465146102ab578063b88d4fde146102c7578063c87b56dd146102e3578063e985e9c51461031357610100565b80636352211e146102115780636a6278421461024157806370a082311461025d57806395d89b411461028d57610100565b806318160ddd116100d357806318160ddd1461019f57806323b872dd146101bd5780632b38cb7a146101d957806342842e0e146101f557610100565b806301ffc9a71461010557806306fdde0314610135578063081812fc14610153578063095ea7b314610183575b600080fd5b61011f600480360381019061011a9190611ca3565b610343565b60405161012c9190612166565b60405180910390f35b61013d610425565b60405161014a9190612181565b60405180910390f35b61016d60048036038101906101689190611cf5565b6104b7565b60405161017a91906120b3565b60405180910390f35b61019d60048036038101906101989190611c67565b61053c565b005b6101a7610654565b6040516101b49190612383565b60405180910390f35b6101d760048036038101906101d29190611b61565b610665565b005b6101f360048036038101906101ee9190611afc565b6106c5565b005b61020f600480360381019061020a9190611b61565b610709565b005b61022b60048036038101906102269190611cf5565b610729565b60405161023891906120b3565b60405180910390f35b61025b60048036038101906102569190611afc565b6107db565b005b61027760048036038101906102729190611afc565b610960565b6040516102849190612383565b60405180910390f35b610295610a18565b6040516102a29190612181565b60405180910390f35b6102c560048036038101906102c09190611c2b565b610aaa565b005b6102e160048036038101906102dc9190611bb0565b610ac0565b005b6102fd60048036038101906102f89190611cf5565b610b22565b60405161030a9190612181565b60405180910390f35b61032d60048036038101906103289190611b25565b610b80565b60405161033a9190612166565b60405180910390f35b60007f80ac58cd000000000000000000000000000000000000000000000000000000007bffffffffffffffffffffffffffffffffffffffffffffffffffffffff1916827bffffffffffffffffffffffffffffffffffffffffffffffffffffffff1916148061040e57507f5b5e139f000000000000000000000000000000000000000000000000000000007bffffffffffffffffffffffffffffffffffffffffffffffffffffffff1916827bffffffffffffffffffffffffffffffffffffffffffffffffffffffff1916145b8061041e575061041d82610c14565b5b9050919050565b60606000805461043490612602565b80601f016020809104026020016040519081016040528092919081815260200182805461046090612602565b80156104ad5780601f10610482576101008083540402835291602001916104ad565b820191906000526020600020905b81548152906001019060200180831161049057829003601f168201915b5050505050905090565b60006104c282610c7e565b610501576040517f08c379a00000000000000000000000000000000000000000000000000000000081526004016104f8906122e3565b60405180910390fd5b6004600083815260200190815260200160002060009054906101000a900473ffffffffffffffffffffffffffffffffffffffff169050919050565b600061054782610729565b90508073ffffffffffffffffffffffffffffffffffffffff168373ffffffffffffffffffffffffffffffffffffffff1614156105b8576040517f08c379a00000000000000000000000000000000000000000000000000000000081526004016105af90612303565b60405180910390fd5b8073ffffffffffffffffffffffffffffffffffffffff166105d7610cea565b73ffffffffffffffffffffffffffffffffffffffff161480610606575061060581610600610cea565b610b80565b5b610645576040517f08c379a000000000000000000000000000000000000000000000000000000000815260040161063c90612263565b60405180910390fd5b61064f8383610cf2565b505050565b60006106606007610dab565b905090565b610676610670610cea565b82610db9565b6106b5576040517f08c379a00000000000000000000000000000000000000000000000000000000081526004016106ac90612323565b60405180910390fd5b6106c0838383610e97565b505050565b80600860006101000a81548173ffffffffffffffffffffffffffffffffffffffff021916908373ffffffffffffffffffffffffffffffffffffffff16021790555050565b61072483838360405180602001604052806000815250610ac0565b505050565b6000806002600084815260200190815260200160002060009054906101000a900473ffffffffffffffffffffffffffffffffffffffff169050600073ffffffffffffffffffffffffffffffffffffffff168173ffffffffffffffffffffffffffffffffffffffff1614156107d2576040517f08c379a00000000000000000000000000000000000000000000000000000000081526004016107c9906122a3565b60405180910390fd5b80915050919050565b60026006541415610821576040517f08c379a000000000000000000000000000000000000000000000000000000000815260040161081890612343565b60405180910390fd5b6002600681905550600073ffffffffffffffffffffffffffffffffffffffff168173ffffffffffffffffffffffffffffffffffffffff161415610899576040517f08c379a000000000000000000000000000000000000000000000000000000000815260040161089090612363565b60405180910390fd5b6108a360076110fe565b60006108ad610654565b9050600860009054906101000a900473ffffffffffffffffffffffffffffffffffffffff1673ffffffffffffffffffffffffffffffffffffffff166326c5b5163384846108f986610b22565b6040518563ffffffff1660e01b8152600401610918949392919061211a565b600060405180830381600087803b15801561093257600080fd5b505af1158015610946573d6000803e3d6000fd5b505050506109543382611114565b50600160068190555050565b60008073ffffffffffffffffffffffffffffffffffffffff168273ffffffffffffffffffffffffffffffffffffffff1614156109d1576040517f08c379a00000000000000000000000000000000000000000000000000000000081526004016109c890612283565b60405180910390fd5b600360008373ffffffffffffffffffffffffffffffffffffffff1673ffffffffffffffffffffffffffffffffffffffff168152602001908152602001600020549050919050565b606060018054610a2790612602565b80601f0160208091040260200160405190810160405280929190818152602001828054610a5390612602565b8015610aa05780601f10610a7557610100808354040283529160200191610aa0565b820191906000526020600020905b815481529060010190602001808311610a8357829003601f168201915b5050505050905090565b610abc610ab5610cea565b8383611132565b5050565b610ad1610acb610cea565b83610db9565b610b10576040517f08c379a0000000000000000000000000000000000000000000000000000000008152600401610b0790612323565b60405180910390fd5b610b1c8484848461129f565b50505050565b60606000610b56610b32846112fb565b604051602001610b429190612086565b6040516020818303038152906040526114a8565b905080604051602001610b699190612064565b604051602081830303815290604052915050919050565b6000600560008473ffffffffffffffffffffffffffffffffffffffff1673ffffffffffffffffffffffffffffffffffffffff16815260200190815260200160002060008373ffffffffffffffffffffffffffffffffffffffff1673ffffffffffffffffffffffffffffffffffffffff16815260200190815260200160002060009054906101000a900460ff16905092915050565b60007f01ffc9a7000000000000000000000000000000000000000000000000000000007bffffffffffffffffffffffffffffffffffffffffffffffffffffffff1916827bffffffffffffffffffffffffffffffffffffffffffffffffffffffff1916149050919050565b60008073ffffffffffffffffffffffffffffffffffffffff166002600084815260200190815260200160002060009054906101000a900473ffffffffffffffffffffffffffffffffffffffff1673ffffffffffffffffffffffffffffffffffffffff1614159050919050565b600033905090565b816004600083815260200190815260200160002060006101000a81548173ffffffffffffffffffffffffffffffffffffffff021916908373ffffffffffffffffffffffffffffffffffffffff160217905550808273ffffffffffffffffffffffffffffffffffffffff16610d6583610729565b73ffffffffffffffffffffffffffffffffffffffff167f8c5be1e5ebec7d5bd14f71427d1e84f3dd0314c0f7b2291e5b200ac8c7c3b92560405160405180910390a45050565b600081600001549050919050565b6000610dc482610c7e565b610e03576040517f08c379a0000000000000000000000000000000000000000000000000000000008152600401610dfa90612243565b60405180910390fd5b6000610e0e83610729565b90508073ffffffffffffffffffffffffffffffffffffffff168473ffffffffffffffffffffffffffffffffffffffff161480610e7d57508373ffffffffffffffffffffffffffffffffffffffff16610e65846104b7565b73ffffffffffffffffffffffffffffffffffffffff16145b80610e8e5750610e8d8185610b80565b5b91505092915050565b8273ffffffffffffffffffffffffffffffffffffffff16610eb782610729565b73ffffffffffffffffffffffffffffffffffffffff1614610f0d576040517f08c379a0000000000000000000000000000000000000000000000000000000008152600401610f04906121c3565b60405180910390fd5b600073ffffffffffffffffffffffffffffffffffffffff168273ffffffffffffffffffffffffffffffffffffffff161415610f7d576040517f08c379a0000000000000000000000000000000000000000000000000000000008152600401610f7490612203565b60405180910390fd5b610f88838383611632565b610f93600082610cf2565b6001600360008573ffffffffffffffffffffffffffffffffffffffff1673ffffffffffffffffffffffffffffffffffffffff1681526020019081526020016000206000828254610fe39190612518565b925050819055506001600360008473ffffffffffffffffffffffffffffffffffffffff1673ffffffffffffffffffffffffffffffffffffffff168152602001908152602001600020600082825461103a9190612437565b92505081905550816002600083815260200190815260200160002060006101000a81548173ffffffffffffffffffffffffffffffffffffffff021916908373ffffffffffffffffffffffffffffffffffffffff160217905550808273ffffffffffffffffffffffffffffffffffffffff168473ffffffffffffffffffffffffffffffffffffffff167fddf252ad1be2c89b69c2b068fc378daa952ba7f163c4a11628f55a4df523b3ef60405160405180910390a46110f9838383611637565b505050565b6001816000016000828254019250508190555050565b61112e82826040518060200160405280600081525061163c565b5050565b8173ffffffffffffffffffffffffffffffffffffffff168373ffffffffffffffffffffffffffffffffffffffff1614156111a1576040517f08c379a000000000000000000000000000000000000000000000000000000000815260040161119890612223565b60405180910390fd5b80600560008573ffffffffffffffffffffffffffffffffffffffff1673ffffffffffffffffffffffffffffffffffffffff16815260200190815260200160002060008473ffffffffffffffffffffffffffffffffffffffff1673ffffffffffffffffffffffffffffffffffffffff16815260200190815260200160002060006101000a81548160ff0219169083151502179055508173ffffffffffffffffffffffffffffffffffffffff168373ffffffffffffffffffffffffffffffffffffffff167f17307eab39ab6107e8899845ad3d59bd9653f200f220920489ca2b5937696c31836040516112929190612166565b60405180910390a3505050565b6112aa848484610e97565b6112b684848484611697565b6112f5576040517f08c379a00000000000000000000000000000000000000000000000000000000081526004016112ec906121a3565b60405180910390fd5b50505050565b60606000821415611343576040518060400160405280600181526020017f300000000000000000000000000000000000000000000000000000000000000081525090506114a3565b600082905060005b6000821461137557808061135e90612665565b915050600a8261136e919061248d565b915061134b565b60008167ffffffffffffffff8111156113b7577f4e487b7100000000000000000000000000000000000000000000000000000000600052604160045260246000fd5b6040519080825280601f01601f1916602001820160405280156113e95781602001600182028036833780820191505090505b5090505b6000851461149c576001826114029190612518565b9150600a8561141191906126ae565b603061141d9190612437565b60f81b818381518110611459577f4e487b7100000000000000000000000000000000000000000000000000000000600052603260045260246000fd5b60200101907effffffffffffffffffffffffffffffffffffffffffffffffffffffffffffff1916908160001a905350600a85611495919061248d565b94506113ed565b8093505050505b919050565b60606000825114156114cb5760405180602001604052806000815250905061162d565b6000604051806060016040528060408152602001612c6760409139905060006003600285516114fa9190612437565b611504919061248d565b600461151091906124be565b67ffffffffffffffff81111561154f577f4e487b7100000000000000000000000000000000000000000000000000000000600052604160045260246000fd5b6040519080825280601f01601f1916602001820160405280156115815781602001600182028036833780820191505090505b509050600182016020820185865187015b808210156115ed576003820191508151603f8160121c168501518453600184019350603f81600c1c168501518453600184019350603f8160061c168501518453600184019350603f8116850151845360018401935050611592565b5050600386510660018114611609576002811461161c57611624565b603d6001830353603d6002830353611624565b603d60018303535b50505080925050505b919050565b505050565b505050565b611646838361182e565b6116536000848484611697565b611692576040517f08c379a0000000000000000000000000000000000000000000000000000000008152600401611689906121a3565b60405180910390fd5b505050565b60006116b88473ffffffffffffffffffffffffffffffffffffffff16611a08565b15611821578373ffffffffffffffffffffffffffffffffffffffff1663150b7a026116e1610cea565b8786866040518563ffffffff1660e01b815260040161170394939291906120ce565b602060405180830381600087803b15801561171d57600080fd5b505af192505050801561174e57506040513d601f19601f8201168201806040525081019061174b9190611ccc565b60015b6117d1573d806000811461177e576040519150601f19603f3d011682016040523d82523d6000602084013e611783565b606091505b506000815114156117c9576040517f08c379a00000000000000000000000000000000000000000000000000000000081526004016117c0906121a3565b60405180910390fd5b805181602001fd5b63150b7a0260e01b7bffffffffffffffffffffffffffffffffffffffffffffffffffffffff1916817bffffffffffffffffffffffffffffffffffffffffffffffffffffffff191614915050611826565b600190505b949350505050565b600073ffffffffffffffffffffffffffffffffffffffff168273ffffffffffffffffffffffffffffffffffffffff16141561189e576040517f08c379a0000000000000000000000000000000000000000000000000000000008152600401611895906122c3565b60405180910390fd5b6118a781610c7e565b156118e7576040517f08c379a00000000000000000000000000000000000000000000000000000000081526004016118de906121e3565b60405180910390fd5b6118f360008383611632565b6001600360008473ffffffffffffffffffffffffffffffffffffffff1673ffffffffffffffffffffffffffffffffffffffff16815260200190815260200160002060008282546119439190612437565b92505081905550816002600083815260200190815260200160002060006101000a81548173ffffffffffffffffffffffffffffffffffffffff021916908373ffffffffffffffffffffffffffffffffffffffff160217905550808273ffffffffffffffffffffffffffffffffffffffff16600073ffffffffffffffffffffffffffffffffffffffff167fddf252ad1be2c89b69c2b068fc378daa952ba7f163c4a11628f55a4df523b3ef60405160405180910390a4611a0460008383611637565b5050565b6000808273ffffffffffffffffffffffffffffffffffffffff163b119050919050565b6000611a3e611a39846123c3565b61239e565b905082815260208101848484011115611a5657600080fd5b611a618482856125c0565b509392505050565b600081359050611a7881612c0a565b92915050565b600081359050611a8d81612c21565b92915050565b600081359050611aa281612c38565b92915050565b600081519050611ab781612c38565b92915050565b600082601f830112611ace57600080fd5b8135611ade848260208601611a2b565b91505092915050565b600081359050611af681612c4f565b92915050565b600060208284031215611b0e57600080fd5b6000611b1c84828501611a69565b91505092915050565b60008060408385031215611b3857600080fd5b6000611b4685828601611a69565b9250506020611b5785828601611a69565b9150509250929050565b600080600060608486031215611b7657600080fd5b6000611b8486828701611a69565b9350506020611b9586828701611a69565b9250506040611ba686828701611ae7565b9150509250925092565b60008060008060808587031215611bc657600080fd5b6000611bd487828801611a69565b9450506020611be587828801611a69565b9350506040611bf687828801611ae7565b925050606085013567ffffffffffffffff811115611c1357600080fd5b611c1f87828801611abd565b91505092959194509250565b60008060408385031215611c3e57600080fd5b6000611c4c85828601611a69565b9250506020611c5d85828601611a7e565b9150509250929050565b60008060408385031215611c7a57600080fd5b6000611c8885828601611a69565b9250506020611c9985828601611ae7565b9150509250929050565b600060208284031215611cb557600080fd5b6000611cc384828501611a93565b91505092915050565b600060208284031215611cde57600080fd5b6000611cec84828501611aa8565b91505092915050565b600060208284031215611d0757600080fd5b6000611d1584828501611ae7565b91505092915050565b611d278161254c565b82525050565b611d368161255e565b82525050565b6000611d47826123f4565b611d51818561240a565b9350611d618185602086016125cf565b611d6a8161279b565b840191505092915050565b6000611d80826123ff565b611d8a818561241b565b9350611d9a8185602086016125cf565b611da38161279b565b840191505092915050565b6000611db9826123ff565b611dc3818561242c565b9350611dd38185602086016125cf565b80840191505092915050565b6000611dec60328361241b565b9150611df7826127ac565b604082019050919050565b6000611e0f60258361241b565b9150611e1a826127fb565b604082019050919050565b6000611e32601c8361241b565b9150611e3d8261284a565b602082019050919050565b6000611e5560248361241b565b9150611e6082612873565b604082019050919050565b6000611e7860198361241b565b9150611e83826128c2565b602082019050919050565b6000611e9b602c8361241b565b9150611ea6826128eb565b604082019050919050565b6000611ebe60388361241b565b9150611ec98261293a565b604082019050919050565b6000611ee1602a8361241b565b9150611eec82612989565b604082019050919050565b6000611f0460298361241b565b9150611f0f826129d8565b604082019050919050565b6000611f2760208361241b565b9150611f3282612a27565b602082019050919050565b6000611f4a602c8361241b565b9150611f5582612a50565b604082019050919050565b6000611f6d60218361241b565b9150611f7882612a9f565b604082019050919050565b6000611f90601d8361242c565b9150611f9b82612aee565b601d82019050919050565b6000611fb360318361241b565b9150611fbe82612b17565b604082019050919050565b6000611fd660128361242c565b9150611fe182612b66565b601282019050919050565b6000611ff9601f8361241b565b915061200482612b8f565b602082019050919050565b600061201c60148361241b565b915061202782612bb8565b602082019050919050565b600061203f60208361242c565b915061204a82612be1565b602082019050919050565b61205e816125b6565b82525050565b600061206f82611f83565b915061207b8284611dae565b915081905092915050565b600061209182611fc9565b915061209d8284611dae565b91506120a882612032565b915081905092915050565b60006020820190506120c86000830184611d1e565b92915050565b60006080820190506120e36000830187611d1e565b6120f06020830186611d1e565b6120fd6040830185612055565b818103606083015261210f8184611d3c565b905095945050505050565b600060808201905061212f6000830187611d1e565b61213c6020830186611d1e565b6121496040830185612055565b818103606083015261215b8184611d75565b905095945050505050565b600060208201905061217b6000830184611d2d565b92915050565b6000602082019050818103600083015261219b8184611d75565b905092915050565b600060208201905081810360008301526121bc81611ddf565b9050919050565b600060208201905081810360008301526121dc81611e02565b9050919050565b600060208201905081810360008301526121fc81611e25565b9050919050565b6000602082019050818103600083015261221c81611e48565b9050919050565b6000602082019050818103600083015261223c81611e6b565b9050919050565b6000602082019050818103600083015261225c81611e8e565b9050919050565b6000602082019050818103600083015261227c81611eb1565b9050919050565b6000602082019050818103600083015261229c81611ed4565b9050919050565b600060208201905081810360008301526122bc81611ef7565b9050919050565b600060208201905081810360008301526122dc81611f1a565b9050919050565b600060208201905081810360008301526122fc81611f3d565b9050919050565b6000602082019050818103600083015261231c81611f60565b9050919050565b6000602082019050818103600083015261233c81611fa6565b9050919050565b6000602082019050818103600083015261235c81611fec565b9050919050565b6000602082019050818103600083015261237c8161200f565b9050919050565b60006020820190506123986000830184612055565b92915050565b60006123a86123b9565b90506123b48282612634565b919050565b6000604051905090565b600067ffffffffffffffff8211156123de576123dd61276c565b5b6123e78261279b565b9050602081019050919050565b600081519050919050565b600081519050919050565b600082825260208201905092915050565b600082825260208201905092915050565b600081905092915050565b6000612442826125b6565b915061244d836125b6565b9250827fffffffffffffffffffffffffffffffffffffffffffffffffffffffffffffffff03821115612482576124816126df565b5b828201905092915050565b6000612498826125b6565b91506124a3836125b6565b9250826124b3576124b261270e565b5b828204905092915050565b60006124c9826125b6565b91506124d4836125b6565b9250817fffffffffffffffffffffffffffffffffffffffffffffffffffffffffffffffff048311821515161561250d5761250c6126df565b5b828202905092915050565b6000612523826125b6565b915061252e836125b6565b925082821015612541576125406126df565b5b828203905092915050565b600061255782612596565b9050919050565b60008115159050919050565b60007fffffffff0000000000000000000000000000000000000000000000000000000082169050919050565b600073ffffffffffffffffffffffffffffffffffffffff82169050919050565b6000819050919050565b82818337600083830152505050565b60005b838110156125ed5780820151818401526020810190506125d2565b838111156125fc576000848401525b50505050565b6000600282049050600182168061261a57607f821691505b6020821081141561262e5761262d61273d565b5b50919050565b61263d8261279b565b810181811067ffffffffffffffff8211171561265c5761265b61276c565b5b80604052505050565b6000612670826125b6565b91507fffffffffffffffffffffffffffffffffffffffffffffffffffffffffffffffff8214156126a3576126a26126df565b5b600182019050919050565b60006126b9826125b6565b91506126c4836125b6565b9250826126d4576126d361270e565b5b828206905092915050565b7f4e487b7100000000000000000000000000000000000000000000000000000000600052601160045260246000fd5b7f4e487b7100000000000000000000000000000000000000000000000000000000600052601260045260246000fd5b7f4e487b7100000000000000000000000000000000000000000000000000000000600052602260045260246000fd5b7f4e487b7100000000000000000000000000000000000000000000000000000000600052604160045260246000fd5b6000601f19601f8301169050919050565b7f4552433732313a207472616e7366657220746f206e6f6e20455243373231526560008201527f63656976657220696d706c656d656e7465720000000000000000000000000000602082015250565b7f4552433732313a207472616e736665722066726f6d20696e636f72726563742060008201527f6f776e6572000000000000000000000000000000000000000000000000000000602082015250565b7f4552433732313a20746f6b656e20616c7265616479206d696e74656400000000600082015250565b7f4552433732313a207472616e7366657220746f20746865207a65726f2061646460008201527f7265737300000000000000000000000000000000000000000000000000000000602082015250565b7f4552433732313a20617070726f766520746f2063616c6c657200000000000000600082015250565b7f4552433732313a206f70657261746f7220717565727920666f72206e6f6e657860008201527f697374656e7420746f6b656e0000000000000000000000000000000000000000602082015250565b7f4552433732313a20617070726f76652063616c6c6572206973206e6f74206f7760008201527f6e6572206e6f7220617070726f76656420666f7220616c6c0000000000000000602082015250565b7f4552433732313a2062616c616e636520717565727920666f7220746865207a6560008201527f726f206164647265737300000000000000000000000000000000000000000000602082015250565b7f4552433732313a206f776e657220717565727920666f72206e6f6e657869737460008201527f656e7420746f6b656e0000000000000000000000000000000000000000000000602082015250565b7f4552433732313a206d696e7420746f20746865207a65726f2061646472657373600082015250565b7f4552433732313a20617070726f76656420717565727920666f72206e6f6e657860008201527f697374656e7420746f6b656e0000000000000000000000000000000000000000602082015250565b7f4552433732313a20617070726f76616c20746f2063757272656e74206f776e6560008201527f7200000000000000000000000000000000000000000000000000000000000000602082015250565b7f646174613a6170706c69636174696f6e2f6a736f6e3b6261736536342c000000600082015250565b7f4552433732313a207472616e736665722063616c6c6572206973206e6f74206f60008201527f776e6572206e6f7220617070726f766564000000000000000000000000000000602082015250565b7f7b226e616d65223a2022416e696d616c20230000000000000000000000000000600082015250565b7f5265656e7472616e637947756172643a207265656e7472616e742063616c6c00600082015250565b7f4d696e74696e6720746f20302061646472657373000000000000000000000000600082015250565b7f222c20226465736372697074696f6e223a2022416e696d616c204e465473227d600082015250565b612c138161254c565b8114612c1e57600080fd5b50565b612c2a8161255e565b8114612c3557600080fd5b50565b612c418161256a565b8114612c4c57600080fd5b50565b612c58816125b6565b8114612c6357600080fd5b5056fe4142434445464748494a4b4c4d4e4f505152535455565758595a6162636465666768696a6b6c6d6e6f707172737475767778797a303132333435363738392b2fa2646970667358221220e659b97174070b077f3c9f65b0cbfdbb37c1290fe706e24a3bd7c16afbbe5e1364736f6c63430008040033",
  "linkReferences": {},
  "deployedLinkReferences": {}
}