{
  "_format": "hh-sol-artifact-1",
  "contractName": "MerkleTree",
  "sourceName": "contracts/MerkleTree.sol",
  "abi": [
    {
      "inputs": [],
      "stateMutability": "nonpayable",
      "type": "constructor"
    },
    {
      "inputs": [
        {
          "internalType": "uint256",
          "name": "",
          "type": "uint256"
        }
      ],
      "name": "hashes",
      "outputs": [
        {
          "internalType": "uint256",
          "name": "",
          "type": "uint256"
        }
      ],
      "stateMutability": "view",
      "type": "function"
    },
    {
      "inputs": [],
      "name": "index",
      "outputs": [
        {
          "internalType": "uint256",
          "name": "",
          "type": "uint256"
        }
      ],
      "stateMutability": "view",
      "type": "function"
    },
    {
      "inputs": [
        {
          "internalType": "uint256",
          "name": "hashedLeaf",
          "type": "uint256"
        }
      ],
      "name": "insertLeaf",
      "outputs": [
        {
          "internalType": "uint256",
          "name": "",
          "type": "uint256"
        }
      ],
      "stateMutability": "nonpayable",
      "type": "function"
    },
    {
      "inputs": [],
      "name": "root",
      "outputs": [
        {
          "internalType": "uint256",
          "name": "",
          "type": "uint256"
        }
      ],
      "stateMutability": "view",
      "type": "function"
    },
    {
      "inputs": [
        {
          "internalType": "uint256[2]",
          "name": "a",
          "type": "uint256[2]"
        },
        {
          "internalType": "uint256[2][2]",
          "name": "b",
          "type": "uint256[2][2]"
        },
        {
          "internalType": "uint256[2]",
          "name": "c",
          "type": "uint256[2]"
        },
        {
          "internalType": "uint256[1]",
          "name": "input",
          "type": "uint256[1]"
        }
      ],
      "name": "verify",
      "outputs": [
        {
          "internalType": "bool",
          "name": "",
          "type": "bool"
        }
      ],
      "stateMutability": "view",
      "type": "function"
    },
    {
      "inputs": [
        {
          "internalType": "uint256[2]",
          "name": "a",
          "type": "uint256[2]"
        },
        {
          "internalType": "uint256[2][2]",
          "name": "b",
          "type": "uint256[2][2]"
        },
        {
          "internalType": "uint256[2]",
          "name": "c",
          "type": "uint256[2]"
        },
        {
          "internalType": "uint256[1]",
          "name": "input",
          "type": "uint256[1]"
        }
      ],
      "name": "verifyProof",
      "outputs": [
        {
          "internalType": "bool",
          "name": "r",
          "type": "bool"
        }
      ],
      "stateMutability": "view",
      "type": "function"
    }
  ],
  "bytecode": "0x608060405260006001553480156200001657600080fd5b5060038060006101000a81548161ffff021916908361ffff1602179055506008600360026101000a81548161ffff021916908361ffff1602179055506001600360029054906101000a900461ffff166002620000739190620005f0565b6200007f919062000694565b61ffff1667ffffffffffffffff811115620000c3577f4e487b7100000000000000000000000000000000000000000000000000000000600052604160045260246000fd5b604051908082528060200260200182016040528015620000f25781602001602082028036833780820191505090505b50600090805190602001906200010a92919062000407565b5060005b600360029054906101000a900461ffff1661ffff168110156200018b57600080828154811062000167577f4e487b7100000000000000000000000000000000000000000000000000000000600052603260045260246000fd5b90600052602060002001819055508080620001829062000722565b9150506200010e565b506200019c620001a260201b60201c565b620007b9565b60005b6001600360029054906101000a900461ffff16620001c4919062000694565b61ffff16811015620003a55773__$86e0c54df1042e28bf2dd20ccf184dc428$__6329a5f2f66040518060400160405280600085600262000206919062000633565b815481106200023e577f4e487b7100000000000000000000000000000000000000000000000000000000600052603260045260246000fd5b906000526020600020015481526020016000600186600262000261919062000633565b6200026d919062000593565b81548110620002a5577f4e487b7100000000000000000000000000000000000000000000000000000000600052603260045260246000fd5b90600052602060002001548152506040518263ffffffff1660e01b8152600401620002d1919062000549565b60206040518083038186803b158015620002ea57600080fd5b505af4158015620002ff573d6000803e3d6000fd5b505050506040513d601f19601f820116820180604052508101906200032591906200048f565b600082600360029054906101000a900461ffff1661ffff1662000349919062000593565b8154811062000381577f4e487b7100000000000000000000000000000000000000000000000000000000600052603260045260246000fd5b906000526020600020018190555080806200039c9062000722565b915050620001a5565b5060006001600080549050620003bc9190620006cf565b81548110620003f4577f4e487b7100000000000000000000000000000000000000000000000000000000600052603260045260246000fd5b9060005260206000200154600281905550565b82805482825590600052602060002090810192821562000446579160200282015b828111156200044557825182559160200191906001019062000428565b5b50905062000455919062000459565b5090565b5b80821115620004745760008160009055506001016200045a565b5090565b60008151905062000489816200079f565b92915050565b600060208284031215620004a257600080fd5b6000620004b28482850162000478565b91505092915050565b6000620004c9838362000538565b60208301905092915050565b620004e08162000570565b620004ec818462000588565b9250620004f98262000566565b8060005b8381101562000530578151620005148782620004bb565b965062000521836200057b565b925050600181019050620004fd565b505050505050565b620005438162000718565b82525050565b6000604082019050620005606000830184620004d5565b92915050565b6000819050919050565b600060029050919050565b6000602082019050919050565b600081905092915050565b6000620005a08262000718565b9150620005ad8362000718565b9250827fffffffffffffffffffffffffffffffffffffffffffffffffffffffffffffffff03821115620005e557620005e462000770565b5b828201905092915050565b6000620005fd826200070a565b91506200060a836200070a565b92508161ffff048311821515161562000628576200062762000770565b5b828202905092915050565b6000620006408262000718565b91506200064d8362000718565b9250817fffffffffffffffffffffffffffffffffffffffffffffffffffffffffffffffff048311821515161562000689576200068862000770565b5b828202905092915050565b6000620006a1826200070a565b9150620006ae836200070a565b925082821015620006c457620006c362000770565b5b828203905092915050565b6000620006dc8262000718565b9150620006e98362000718565b925082821015620006ff57620006fe62000770565b5b828203905092915050565b600061ffff82169050919050565b6000819050919050565b60006200072f8262000718565b91507fffffffffffffffffffffffffffffffffffffffffffffffffffffffffffffffff82141562000765576200076462000770565b5b600182019050919050565b7f4e487b7100000000000000000000000000000000000000000000000000000000600052601160045260246000fd5b620007aa8162000718565b8114620007b657600080fd5b50565b6129d180620007c96000396000f3fe608060405234801561001057600080fd5b50600436106100625760003560e01c80632986c0e5146100675780632fa8ea6d1461008557806343753b4d146100b5578063501895ae146100e5578063b720243414610115578063ebf0c71714610145575b600080fd5b61006f610163565b60405161007c919061252a565b60405180910390f35b61009f600480360381019061009a919061220f565b610169565b6040516100ac919061244f565b60405180910390f35b6100cf60048036038101906100ca919061220f565b6101b8565b6040516100dc919061244f565b60405180910390f35b6100ff60048036038101906100fa9190612274565b61066c565b60405161010c919061252a565b60405180910390f35b61012f600480360381019061012a9190612274565b610690565b60405161013c919061252a565b60405180910390f35b61014d610ab3565b60405161015a919061252a565b60405180910390f35b60015481565b6000816000600181106101a5577f4e487b7100000000000000000000000000000000000000000000000000000000600052603260045260246000fd5b6020020151600254149050949350505050565b60006101c2611f05565b604051806040016040528087600060028110610207577f4e487b7100000000000000000000000000000000000000000000000000000000600052603260045260246000fd5b602002015181526020018760016002811061024b577f4e487b7100000000000000000000000000000000000000000000000000000000600052603260045260246000fd5b6020020151815250816000018190525060405180604001604052806040518060400160405280886000600281106102ab577f4e487b7100000000000000000000000000000000000000000000000000000000600052603260045260246000fd5b60200201516000600281106102e9577f4e487b7100000000000000000000000000000000000000000000000000000000600052603260045260246000fd5b602002015181526020018860006002811061032d577f4e487b7100000000000000000000000000000000000000000000000000000000600052603260045260246000fd5b602002015160016002811061036b577f4e487b7100000000000000000000000000000000000000000000000000000000600052603260045260246000fd5b602002015181525081526020016040518060400160405280886001600281106103bd577f4e487b7100000000000000000000000000000000000000000000000000000000600052603260045260246000fd5b60200201516000600281106103fb577f4e487b7100000000000000000000000000000000000000000000000000000000600052603260045260246000fd5b602002015181526020018860016002811061043f577f4e487b7100000000000000000000000000000000000000000000000000000000600052603260045260246000fd5b602002015160016002811061047d577f4e487b7100000000000000000000000000000000000000000000000000000000600052603260045260246000fd5b602002015181525081525081602001819052506040518060400160405280856000600281106104d5577f4e487b7100000000000000000000000000000000000000000000000000000000600052603260045260246000fd5b6020020151815260200185600160028110610519577f4e487b7100000000000000000000000000000000000000000000000000000000600052603260045260246000fd5b602002015181525081604001819052506000600167ffffffffffffffff81111561056c577f4e487b7100000000000000000000000000000000000000000000000000000000600052604160045260246000fd5b60405190808252806020026020018201604052801561059a5781602001602082028036833780820191505090505b50905060005b600181101561063f578481600181106105e2577f4e487b7100000000000000000000000000000000000000000000000000000000600052603260045260246000fd5b6020020151828281518110610620577f4e487b7100000000000000000000000000000000000000000000000000000000600052603260045260246000fd5b602002602001018181525050808061063790612776565b9150506105a0565b50600061064c8284610ab9565b141561065d57600192505050610664565b6000925050505b949350505050565b6000818154811061067c57600080fd5b906000526020600020016000915090505481565b6000816000600154815481106106cf577f4e487b7100000000000000000000000000000000000000000000000000000000600052603260045260246000fd5b906000526020600020018190555060008060015490506000600190505b600360029054906101000a900461ffff1661ffff16811015610a345760008284610716919061261a565b905081600360029054906101000a900461ffff1661ffff166107389190612670565b84610743919061261a565b93506002836107529190612670565b9250600060028261076391906127bf565b1461089c5773__$86e0c54df1042e28bf2dd20ccf184dc428$__6329a5f2f66040518060400160405280600060018661079c91906126fb565b815481106107d3577f4e487b7100000000000000000000000000000000000000000000000000000000600052603260045260246000fd5b906000526020600020015481526020016000858154811061081d577f4e487b7100000000000000000000000000000000000000000000000000000000600052603260045260246000fd5b90600052602060002001548152506040518263ffffffff1660e01b81526004016108479190612434565b60206040518083038186803b15801561085f57600080fd5b505af4158015610873573d6000803e3d6000fd5b505050506040513d601f19601f82011682018060405250810190610897919061229d565b6109cc565b73__$86e0c54df1042e28bf2dd20ccf184dc428$__6329a5f2f66040518060400160405280600085815481106108fb577f4e487b7100000000000000000000000000000000000000000000000000000000600052603260045260246000fd5b90600052602060002001548152602001600060018661091a919061261a565b81548110610951577f4e487b7100000000000000000000000000000000000000000000000000000000600052603260045260246000fd5b90600052602060002001548152506040518263ffffffff1660e01b815260040161097b9190612434565b60206040518083038186803b15801561099357600080fd5b505af41580156109a7573d6000803e3d6000fd5b505050506040513d601f19601f820116820180604052508101906109cb919061229d565b5b600084866109da919061261a565b81548110610a11577f4e487b7100000000000000000000000000000000000000000000000000000000600052603260045260246000fd5b906000526020600020018190555050600281610a2d91906126a1565b90506106ec565b50600160008154610a4490612776565b9190508190555060006001600080549050610a5f91906126fb565b81548110610a96577f4e487b7100000000000000000000000000000000000000000000000000000000600052603260045260246000fd5b906000526020600020015460028190555060025492505050919050565b60025481565b6000807f30644e72e131a029b85045b68181585d2833e84879b9709143e1f593f000000190506000610ae9610d44565b905080608001515160018651610aff919061261a565b14610b3f576040517f08c379a0000000000000000000000000000000000000000000000000000000008152600401610b369061246a565b60405180910390fd5b60006040518060400160405280600081526020016000815250905060005b8651811015610ca05783878281518110610ba0577f4e487b7100000000000000000000000000000000000000000000000000000000600052603260045260246000fd5b602002602001015110610be8576040517f08c379a0000000000000000000000000000000000000000000000000000000008152600401610bdf906124aa565b60405180910390fd5b610c8b82610c868560800151600185610c01919061261a565b81518110610c38577f4e487b7100000000000000000000000000000000000000000000000000000000600052603260045260246000fd5b60200260200101518a8581518110610c79577f4e487b7100000000000000000000000000000000000000000000000000000000600052603260045260246000fd5b60200260200101516111ba565b611309565b91508080610c9890612776565b915050610b5d565b50610cf0818360800151600081518110610ce3577f4e487b7100000000000000000000000000000000000000000000000000000000600052603260045260246000fd5b6020026020010151611309565b9050610d26610d0286600001516114a4565b8660200151846000015185602001518587604001518b604001518960600151611549565b610d365760019350505050610d3e565b600093505050505b92915050565b610d4c611f38565b60405180604001604052807f2d4d9aa7e302d9df41749d5507949d05dbea33fbb16c643b22f599a2be6df2e281526020017f14bedd503c37ceb061d8ec60209fe345ce89830a19230301f076caff004d19268152508160000181905250604051806040016040528060405180604001604052807f0967032fcbf776d1afc985f88877f182d38480a653f2decaa9794cbc3bf3060c81526020017f0e187847ad4c798374d0d6732bf501847dd68bc0e071241e0213bc7fc13db7ab815250815260200160405180604001604052807f304cfbd1e08a704a99f5e847d93f8c3caafddec46b7a0d379da69a4d112346a781526020017f1739c1b1a457a8c7313123d24d2f9192f896b7c63eea05a9d57f06547ad0cec88152508152508160200181905250604051806040016040528060405180604001604052807f198e9393920d483a7260bfb731fb5d25f1aa493335a9e71297e485b7aef312c281526020017f1800deef121f1e76426a00665e5c4479674322d4f75edadd46debd5cd992f6ed815250815260200160405180604001604052807f090689d0585ff075ec9e99ad690c3395bc4b313370b38ef355acdadcd122975b81526020017f12c85ea5db8c6deb4aab71808dcb408fe3d1e7690c43d37b4ce6cc0166fa7daa8152508152508160400181905250604051806040016040528060405180604001604052807f11b37378670a1441eb836b14fbacf3abc073192aa05fafe697c2a0529b1abb5481526020017f1e1ecb24c301e73c1c7e3e40fa1f7d8506a38b43f94e8b1263a010495090865a815250815260200160405180604001604052807f288101eb77e0549595ebafe0f24815ef3d62f381ccb366edde364314f37c667181526020017f0b1800b095aeec7099c240cbc1063d9264a3af944468f4773e02ca558233509c8152508152508160600181905250600267ffffffffffffffff811115611039577f4e487b7100000000000000000000000000000000000000000000000000000000600052604160045260246000fd5b60405190808252806020026020018201604052801561107257816020015b61105f611f7f565b8152602001906001900390816110575790505b50816080018190525060405180604001604052807f13706bda9100809346431e9e3dc533dc353a7b16fddda73e84c984ddd5039b2781526020017f283850d244abcd997033d64111112b4d556fe860f63b218bd2aabae8bd231b50815250816080015160008151811061110e577f4e487b7100000000000000000000000000000000000000000000000000000000600052603260045260246000fd5b602002602001018190525060405180604001604052807f1c2c28d42ded54d29d02cf2b79eb612214310350d96de33d5ecb956a5337611481526020017f2840ec29342e8b98cc346d319e12a79ca922ba45b33c57e432d87230aafa936481525081608001516001815181106111ac577f4e487b7100000000000000000000000000000000000000000000000000000000600052603260045260246000fd5b602002602001018190525090565b6111c2611f7f565b6111ca611f99565b836000015181600060038110611209577f4e487b7100000000000000000000000000000000000000000000000000000000600052603260045260246000fd5b602002018181525050836020015181600160038110611251577f4e487b7100000000000000000000000000000000000000000000000000000000600052603260045260246000fd5b6020020181815250508281600260038110611295577f4e487b7100000000000000000000000000000000000000000000000000000000600052603260045260246000fd5b602002018181525050600060608360808460076107d05a03fa905080600081146112be576112c0565bfe5b5080611301576040517f08c379a00000000000000000000000000000000000000000000000000000000081526004016112f89061248a565b60405180910390fd5b505092915050565b611311611f7f565b611319611fbb565b836000015181600060048110611358577f4e487b7100000000000000000000000000000000000000000000000000000000600052603260045260246000fd5b6020020181815250508360200151816001600481106113a0577f4e487b7100000000000000000000000000000000000000000000000000000000600052603260045260246000fd5b6020020181815250508260000151816002600481106113e8577f4e487b7100000000000000000000000000000000000000000000000000000000600052603260045260246000fd5b602002018181525050826020015181600360048110611430577f4e487b7100000000000000000000000000000000000000000000000000000000600052603260045260246000fd5b602002018181525050600060608360c08460066107d05a03fa905080600081146114595761145b565bfe5b508061149c576040517f08c379a0000000000000000000000000000000000000000000000000000000008152600401611493906124ea565b60405180910390fd5b505092915050565b6114ac611f7f565b60007f30644e72e131a029b85045b68181585d97816a916871ca8d3c208c16d87cfd479050600083600001511480156114e9575060008360200151145b1561150d576040518060400160405280600081526020016000815250915050611544565b60405180604001604052808460000151815260200182856020015161153291906127bf565b8361153d91906126fb565b8152509150505b919050565b600080600467ffffffffffffffff81111561158d577f4e487b7100000000000000000000000000000000000000000000000000000000600052604160045260246000fd5b6040519080825280602002602001820160405280156115c657816020015b6115b3611f7f565b8152602001906001900390816115ab5790505b5090506000600467ffffffffffffffff81111561160c577f4e487b7100000000000000000000000000000000000000000000000000000000600052604160045260246000fd5b60405190808252806020026020018201604052801561164557816020015b611632611fdd565b81526020019060019003908161162a5790505b5090508a82600081518110611683577f4e487b7100000000000000000000000000000000000000000000000000000000600052603260045260246000fd5b602002602001018190525088826001815181106116c9577f4e487b7100000000000000000000000000000000000000000000000000000000600052603260045260246000fd5b6020026020010181905250868260028151811061170f577f4e487b7100000000000000000000000000000000000000000000000000000000600052603260045260246000fd5b60200260200101819052508482600381518110611755577f4e487b7100000000000000000000000000000000000000000000000000000000600052603260045260246000fd5b6020026020010181905250898160008151811061179b577f4e487b7100000000000000000000000000000000000000000000000000000000600052603260045260246000fd5b602002602001018190525087816001815181106117e1577f4e487b7100000000000000000000000000000000000000000000000000000000600052603260045260246000fd5b60200260200101819052508581600281518110611827577f4e487b7100000000000000000000000000000000000000000000000000000000600052603260045260246000fd5b6020026020010181905250838160038151811061186d577f4e487b7100000000000000000000000000000000000000000000000000000000600052603260045260246000fd5b60200260200101819052506118828282611892565b9250505098975050505050505050565b600081518351146118d8576040517f08c379a00000000000000000000000000000000000000000000000000000000081526004016118cf906124ca565b60405180910390fd5b60008351905060006006826118ed91906126a1565b905060008167ffffffffffffffff811115611931577f4e487b7100000000000000000000000000000000000000000000000000000000600052604160045260246000fd5b60405190808252806020026020018201604052801561195f5781602001602082028036833780820191505090505b50905060005b83811015611e44578681815181106119a6577f4e487b7100000000000000000000000000000000000000000000000000000000600052603260045260246000fd5b6020026020010151600001518260006006846119c291906126a1565b6119cc919061261a565b81518110611a03577f4e487b7100000000000000000000000000000000000000000000000000000000600052603260045260246000fd5b602002602001018181525050868181518110611a48577f4e487b7100000000000000000000000000000000000000000000000000000000600052603260045260246000fd5b602002602001015160200151826001600684611a6491906126a1565b611a6e919061261a565b81518110611aa5577f4e487b7100000000000000000000000000000000000000000000000000000000600052603260045260246000fd5b602002602001018181525050858181518110611aea577f4e487b7100000000000000000000000000000000000000000000000000000000600052603260045260246000fd5b602002602001015160000151600060028110611b2f577f4e487b7100000000000000000000000000000000000000000000000000000000600052603260045260246000fd5b6020020151826002600684611b4491906126a1565b611b4e919061261a565b81518110611b85577f4e487b7100000000000000000000000000000000000000000000000000000000600052603260045260246000fd5b602002602001018181525050858181518110611bca577f4e487b7100000000000000000000000000000000000000000000000000000000600052603260045260246000fd5b602002602001015160000151600160028110611c0f577f4e487b7100000000000000000000000000000000000000000000000000000000600052603260045260246000fd5b6020020151826003600684611c2491906126a1565b611c2e919061261a565b81518110611c65577f4e487b7100000000000000000000000000000000000000000000000000000000600052603260045260246000fd5b602002602001018181525050858181518110611caa577f4e487b7100000000000000000000000000000000000000000000000000000000600052603260045260246000fd5b602002602001015160200151600060028110611cef577f4e487b7100000000000000000000000000000000000000000000000000000000600052603260045260246000fd5b6020020151826004600684611d0491906126a1565b611d0e919061261a565b81518110611d45577f4e487b7100000000000000000000000000000000000000000000000000000000600052603260045260246000fd5b602002602001018181525050858181518110611d8a577f4e487b7100000000000000000000000000000000000000000000000000000000600052603260045260246000fd5b602002602001015160200151600160028110611dcf577f4e487b7100000000000000000000000000000000000000000000000000000000600052603260045260246000fd5b6020020151826005600684611de491906126a1565b611dee919061261a565b81518110611e25577f4e487b7100000000000000000000000000000000000000000000000000000000600052603260045260246000fd5b6020026020010181815250508080611e3c90612776565b915050611965565b50611e4d612003565b6000602082602086026020860160086107d05a03fa90508060008114611e7257611e74565bfe5b5080611eb5576040517f08c379a0000000000000000000000000000000000000000000000000000000008152600401611eac9061250a565b60405180910390fd5b600082600060018110611ef1577f4e487b7100000000000000000000000000000000000000000000000000000000600052603260045260246000fd5b602002015114159550505050505092915050565b6040518060600160405280611f18611f7f565b8152602001611f25611fdd565b8152602001611f32611f7f565b81525090565b6040518060a00160405280611f4b611f7f565b8152602001611f58611fdd565b8152602001611f65611fdd565b8152602001611f72611fdd565b8152602001606081525090565b604051806040016040528060008152602001600081525090565b6040518060600160405280600390602082028036833780820191505090505090565b6040518060800160405280600490602082028036833780820191505090505090565b6040518060400160405280611ff0612025565b8152602001611ffd612025565b81525090565b6040518060200160405280600190602082028036833780820191505090505090565b6040518060400160405280600290602082028036833780820191505090505090565b600061205a6120558461256a565b612545565b9050808285604086028201111561207057600080fd5b60005b858110156120a0578161208688826121be565b845260208401935060408301925050600181019050612073565b5050509392505050565b60006120bd6120b884612590565b612545565b905080828560208602820111156120d357600080fd5b60005b8581101561210357816120e988826121e5565b8452602084019350602083019250506001810190506120d6565b5050509392505050565b600061212061211b846125b6565b612545565b9050808285602086028201111561213657600080fd5b60005b85811015612166578161214c88826121e5565b845260208401935060208301925050600181019050612139565b5050509392505050565b600082601f83011261218157600080fd5b600261218e848285612047565b91505092915050565b600082601f8301126121a857600080fd5b60016121b58482856120aa565b91505092915050565b600082601f8301126121cf57600080fd5b60026121dc84828561210d565b91505092915050565b6000813590506121f481612984565b92915050565b60008151905061220981612984565b92915050565b600080600080610120858703121561222657600080fd5b6000612234878288016121be565b945050604061224587828801612170565b93505060c0612256878288016121be565b92505061010061226887828801612197565b91505092959194509250565b60006020828403121561228657600080fd5b6000612294848285016121e5565b91505092915050565b6000602082840312156122af57600080fd5b60006122bd848285016121fa565b91505092915050565b60006122d28383612425565b60208301905092915050565b6122e7816125e6565b6122f181846125fe565b92506122fc826125dc565b8060005b8381101561232d57815161231487826122c6565b965061231f836125f1565b925050600181019050612300565b505050505050565b61233e8161272f565b82525050565b6000612351601283612609565b915061235c8261288e565b602082019050919050565b6000612374601283612609565b915061237f826128b7565b602082019050919050565b6000612397601f83612609565b91506123a2826128e0565b602082019050919050565b60006123ba601683612609565b91506123c582612909565b602082019050919050565b60006123dd601283612609565b91506123e882612932565b602082019050919050565b6000612400601583612609565b915061240b8261295b565b602082019050919050565b61241f8161273b565b82525050565b61242e8161273b565b82525050565b600060408201905061244960008301846122de565b92915050565b60006020820190506124646000830184612335565b92915050565b6000602082019050818103600083015261248381612344565b9050919050565b600060208201905081810360008301526124a381612367565b9050919050565b600060208201905081810360008301526124c38161238a565b9050919050565b600060208201905081810360008301526124e3816123ad565b9050919050565b60006020820190508181036000830152612503816123d0565b9050919050565b60006020820190508181036000830152612523816123f3565b9050919050565b600060208201905061253f6000830184612416565b92915050565b600061254f612560565b905061255b8282612745565b919050565b6000604051905090565b600067ffffffffffffffff8211156125855761258461284e565b5b602082029050919050565b600067ffffffffffffffff8211156125ab576125aa61284e565b5b602082029050919050565b600067ffffffffffffffff8211156125d1576125d061284e565b5b602082029050919050565b6000819050919050565b600060029050919050565b6000602082019050919050565b600081905092915050565b600082825260208201905092915050565b60006126258261273b565b91506126308361273b565b9250827fffffffffffffffffffffffffffffffffffffffffffffffffffffffffffffffff03821115612665576126646127f0565b5b828201905092915050565b600061267b8261273b565b91506126868361273b565b9250826126965761269561281f565b5b828204905092915050565b60006126ac8261273b565b91506126b78361273b565b9250817fffffffffffffffffffffffffffffffffffffffffffffffffffffffffffffffff04831182151516156126f0576126ef6127f0565b5b828202905092915050565b60006127068261273b565b91506127118361273b565b925082821015612724576127236127f0565b5b828203905092915050565b60008115159050919050565b6000819050919050565b61274e8261287d565b810181811067ffffffffffffffff8211171561276d5761276c61284e565b5b80604052505050565b60006127818261273b565b91507fffffffffffffffffffffffffffffffffffffffffffffffffffffffffffffffff8214156127b4576127b36127f0565b5b600182019050919050565b60006127ca8261273b565b91506127d58361273b565b9250826127e5576127e461281f565b5b828206905092915050565b7f4e487b7100000000000000000000000000000000000000000000000000000000600052601160045260246000fd5b7f4e487b7100000000000000000000000000000000000000000000000000000000600052601260045260246000fd5b7f4e487b7100000000000000000000000000000000000000000000000000000000600052604160045260246000fd5b6000601f19601f8301169050919050565b7f76657269666965722d6261642d696e7075740000000000000000000000000000600082015250565b7f70616972696e672d6d756c2d6661696c65640000000000000000000000000000600082015250565b7f76657269666965722d6774652d736e61726b2d7363616c61722d6669656c6400600082015250565b7f70616972696e672d6c656e677468732d6661696c656400000000000000000000600082015250565b7f70616972696e672d6164642d6661696c65640000000000000000000000000000600082015250565b7f70616972696e672d6f70636f64652d6661696c65640000000000000000000000600082015250565b61298d8161273b565b811461299857600080fd5b5056fea26469706673582212208cc879b155afb67e0b7bcf2099ae1df60a48bb6e75fab40fd1a1d9a4bc8f250f64736f6c63430008040033",
  "linkReferences": {
    "contracts/Poseidon.sol": {
      "PoseidonT3": [
        {
          "length": 20,
          "start": 466
        },
        {
          "length": 20,
          "start": 3891
        },
        {
          "length": 20,
          "start": 4199
        }
      ]
    }
  },
  "deployedLinkReferences": {
    "contracts/Poseidon.sol": {
      "PoseidonT3": [
        {
          "length": 20,
          "start": 1898
        },
        {
          "length": 20,
          "start": 2206
        }
      ]
    }
  }
}